{"abi":[{"type":"function","name":"FEE_GROWTH_GLOBAL0_OFFSET","inputs":[],"outputs":[{"name":"","type":"uint256","internalType":"uint256"}],"stateMutability":"view"},{"type":"function","name":"FEE_GROWTH_GLOBAL1_OFFSET","inputs":[],"outputs":[{"name":"","type":"uint256","internalType":"uint256"}],"stateMutability":"view"},{"type":"function","name":"LIQUIDITY_OFFSET","inputs":[],"outputs":[{"name":"","type":"uint256","internalType":"uint256"}],"stateMutability":"view"},{"type":"function","name":"POOLS_SLOT","inputs":[],"outputs":[{"name":"","type":"bytes32","internalType":"bytes32"}],"stateMutability":"view"},{"type":"function","name":"POSITIONS_OFFSET","inputs":[],"outputs":[{"name":"","type":"uint256","internalType":"uint256"}],"stateMutability":"view"},{"type":"function","name":"TICKS_OFFSET","inputs":[],"outputs":[{"name":"","type":"uint256","internalType":"uint256"}],"stateMutability":"view"},{"type":"function","name":"TICK_BITMAP_OFFSET","inputs":[],"outputs":[{"name":"","type":"uint256","internalType":"uint256"}],"stateMutability":"view"}],"bytecode":{"object":"0x60f2610033600b8282823980515f1a607314602757634e487b7160e01b5f525f60045260245ffd5b305f52607381538281f3fe7300000000000000000000000000000000000000003014608060405260043610607c575f3560e01c8063769323e311605d578063769323e31460a05780637d35604a1460a7578063b432004a1460ae578063ca24e3b51460b5575f80fd5b80632ba31c5314608057806357eb1da7146080578063599751d8146099575b5f80fd5b6087600681565b60405190815260200160405180910390f35b6087600281565b6087600481565b6087600581565b6087600381565b608760018156fea2646970667358221220bf684e63f4d37d331a84c79f416fa1af6129b2c9dac94bae037260da023bd3ec64736f6c634300081a0033","linkReferences":{}},"methodIdentifiers":{"FEE_GROWTH_GLOBAL0_OFFSET()":"ca24e3b5","FEE_GROWTH_GLOBAL1_OFFSET()":"599751d8","LIQUIDITY_OFFSET()":"b432004a","POOLS_SLOT()":"57eb1da7","POSITIONS_OFFSET()":"2ba31c53","TICKS_OFFSET()":"769323e3","TICK_BITMAP_OFFSET()":"7d35604a"},"id":42}