{"abi":[{"type":"function","name":"NATIVE","inputs":[],"outputs":[{"name":"","type":"address","internalType":"Currency"}],"stateMutability":"view"},{"type":"error","name":"ERC20TransferFailed","inputs":[]},{"type":"error","name":"NativeTransferFailed","inputs":[]}],"bytecode":{"object":"0x608e6032600b8282823980515f1a607314602657634e487b7160e01b5f525f60045260245ffd5b305f52607381538281f3fe73000000000000000000000000000000000000000030146080604052600436106032575f3560e01c8063a0cf0aea146036575b5f80fd5b603c5f81565b6040516001600160a01b03909116815260200160405180910390f3fea26469706673582212206f99fc7ea2de153e851867467d5d4877195a69007767268501f49cacdf31649f64736f6c634300081a0033","linkReferences":{}},"methodIdentifiers":{"NATIVE()":"a0cf0aea"},"id":52}