{"abi":[{"type":"constructor","inputs":[{"name":"_manager","type":"address","internalType":"contract IPoolManager"}],"stateMutability":"nonpayable"},{"type":"function","name":"manager","inputs":[],"outputs":[{"name":"","type":"address","internalType":"contract IPoolManager"}],"stateMutability":"view"},{"type":"function","name":"swap","inputs":[{"name":"key","type":"tuple","internalType":"struct PoolKey","components":[{"name":"currency0","type":"address","internalType":"Currency"},{"name":"currency1","type":"address","internalType":"Currency"},{"name":"fee","type":"uint24","internalType":"uint24"},{"name":"tickSpacing","type":"int24","internalType":"int24"},{"name":"hooks","type":"address","internalType":"contract IHooks"}]},{"name":"params","type":"tuple","internalType":"struct IPoolManager.SwapParams","components":[{"name":"zeroForOne","type":"bool","internalType":"bool"},{"name":"amountSpecified","type":"int256","internalType":"int256"},{"name":"sqrtPriceLimitX96","type":"uint160","internalType":"uint160"}]},{"name":"testSettings","type":"tuple","internalType":"struct PoolSwapTest.TestSettings","components":[{"name":"takeClaims","type":"bool","internalType":"bool"},{"name":"settleUsingBurn","type":"bool","internalType":"bool"}]},{"name":"hookData","type":"bytes","internalType":"bytes"}],"outputs":[{"name":"delta","type":"int256","internalType":"BalanceDelta"}],"stateMutability":"payable"},{"type":"function","name":"unlockCallback","inputs":[{"name":"rawData","type":"bytes","internalType":"bytes"}],"outputs":[{"name":"","type":"bytes","internalType":"bytes"}],"stateMutability":"nonpayable"},{"type":"error","name":"NoSwapOccurred","inputs":[]}],"bytecode":{"object":"0x60a0604052348015600e575f80fd5b50604051611784380380611784833981016040819052602b91603b565b6001600160a01b03166080526066565b5f60208284031215604a575f80fd5b81516001600160a01b0381168114605f575f80fd5b9392505050565b6080516116c96100bb5f395f8181606e0152818160d7015281816101ee0152818161030001528181610888015281816108e10152818161095e015281816109b201528181610a970152610aca01526116c95ff3fe608060405260043610610033575f3560e01c80632229d0b414610037578063481c6a751461005d57806391dd7346146100a8575b5f80fd5b61004a610045366004611236565b6100d4565b6040519081526020015b60405180910390f35b348015610068575f80fd5b506100907f000000000000000000000000000000000000000000000000000000000000000081565b6040516001600160a01b039091168152602001610054565b3480156100b3575f80fd5b506100c76100c23660046112a7565b6101e1565b6040516100549190611343565b5f7f00000000000000000000000000000000000000000000000000000000000000006001600160a01b03166348c894916040518060a00160405280336001600160a01b0316815260200186815260200188815260200187815260200185815250604051602001610144919061139f565b6040516020818303038152906040526040518263ffffffff1660e01b815260040161016f9190611343565b5f604051808303815f875af115801561018a573d5f803e3d5ffd5b505050506040513d5f823e601f3d908101601f191682016040526101b19190810190611430565b8060200190518101906101c491906114a5565b90504780156101d8576101d85f3383610a04565b50949350505050565b6060336001600160a01b037f00000000000000000000000000000000000000000000000000000000000000001614610217575f80fd5b5f610224838501856114bc565b90505f61023c82604001515f0151835f015130610a70565b925050505f610257836040015160200151845f015130610a70565b92505050815f146102af5760405162461bcd60e51b815260206004820152601e60248201527f64656c74614265666f726530206973206e6f7420657175616c20746f2030000060448201526064015b60405180910390fd5b80156102fd5760405162461bcd60e51b815260206004820152601e60248201527f64656c74614265666f726531206973206e6f7420657175616c20746f2030000060448201526064016102a6565b5f7f00000000000000000000000000000000000000000000000000000000000000006001600160a01b031663f3cd914c8560400151866060015187608001516040518463ffffffff1660e01b815260040161035a93929190611574565b6020604051808303815f875af1158015610376573d5f803e3d5ffd5b505050506040513d601f19601f8201168201806040525081019061039a91906114a5565b90505f6103b285604001515f0151865f015130610a70565b925050505f6103cd866040015160200151875f015130610a70565b9250505085606001515f01511561062f575f86606001516020015112156105125785606001516020015182121561047c5760405162461bcd60e51b815260206004820152604760248201527f64656c7461416674657230206973206e6f742067726561746572207468616e2060448201527f6f7220657175616c20746f20646174612e706172616d732e616d6f756e7453706064820152661958da599a595960ca1b608482015260a4016102a6565b816104878460801d90565b600f0b146104a75760405162461bcd60e51b81526004016102a6906115bc565b5f81121561050d5760405162461bcd60e51b815260206004820152602d60248201527f64656c7461416674657231206973206e6f742067726561746572207468616e2060448201526c06f7220657175616c20746f203609c1b60648201526084016102a6565b610878565b5f8213156105785760405162461bcd60e51b815260206004820152602d60248201527f64656c7461416674657230206973206e6f74206c657373207468616e206f722060448201526c657175616c20746f207a65726f60981b60648201526084016102a6565b8061058384600f0b90565b600f0b146105a35760405162461bcd60e51b81526004016102a690611607565b85606001516020015181131561050d5760405162461bcd60e51b8152602060048201526044602482018190527f64656c7461416674657231206973206e6f74206c657373207468616e206f7220908201527f657175616c20746f20646174612e706172616d732e616d6f756e745370656369606482015263199a595960e21b608482015260a4016102a6565b5f866060015160200151121561075e578560600151602001518112156106cd5760405162461bcd60e51b815260206004820152604760248201527f64656c7461416674657231206973206e6f742067726561746572207468616e2060448201527f6f7220657175616c20746f20646174612e706172616d732e616d6f756e7453706064820152661958da599a595960ca1b608482015260a4016102a6565b806106d884600f0b90565b600f0b146106f85760405162461bcd60e51b81526004016102a690611607565b5f82121561050d5760405162461bcd60e51b815260206004820152602d60248201527f64656c7461416674657230206973206e6f742067726561746572207468616e2060448201526c06f7220657175616c20746f203609c1b60648201526084016102a6565b5f8113156107c15760405162461bcd60e51b815260206004820152602a60248201527f64656c7461416674657231206973206e6f74206c657373207468616e206f72206044820152690657175616c20746f20360b41b60648201526084016102a6565b816107cc8460801d90565b600f0b146107ec5760405162461bcd60e51b81526004016102a6906115bc565b8560600151602001518213156108785760405162461bcd60e51b8152602060048201526044602482018190527f64656c7461416674657230206973206e6f74206c657373207468616e206f7220908201527f657175616c20746f20646174612e706172616d732e616d6f756e745370656369606482015263199a595960e21b608482015260a4016102a6565b5f8212156108d15785516108d1907f0000000000000000000000000000000000000000000000000000000000000000906108b185611652565b6020808b0151015160408b0151516001600160a01b031693929190610afc565b5f811215610936578551610936907f00000000000000000000000000000000000000000000000000000000000000009061090a84611652565b8960200151602001518a60400151602001516001600160a01b0316610afc90949392919063ffffffff16565b5f821315610986578551602087015151604088015151610986926001600160a01b03909116917f000000000000000000000000000000000000000000000000000000000000000091908690610ded565b5f8113156109da578551602080880151516040890151909101516109da926001600160a01b03909116917f000000000000000000000000000000000000000000000000000000000000000091908590610ded565b60408051602081018590520160405160208183030381529060405296505050505050505b92915050565b6001600160a01b038316610a30575f805f8084865af1610a2b5763f4b3b1bc5f526004601cfd5b505050565b816014528060345263a9059cbb60601b5f5260205f604460105f875af13d1560015f51141716610a675763f27f64e45f526004601cfd5b5f603452505050565b5f8080610a866001600160a01b03871686610ebf565b9250610abb6001600160a01b0387167f0000000000000000000000000000000000000000000000000000000000000000610ebf565b9150610af16001600160a01b037f0000000000000000000000000000000000000000000000000000000000000000168588610f4e565b905093509350939050565b8015610b9157836001600160a01b031663f5298aca84610b2b886001600160a01b03166001600160a01b031690565b6040516001600160e01b031960e085901b1681526001600160a01b0390921660048301526024820152604481018590526064015b5f604051808303815f87803b158015610b76575f80fd5b505af1158015610b88573d5f803e3d5ffd5b50505050610de6565b6001600160a01b038516610c1157604051636a256b2960e01b81526001600160a01b038681166004830152851690636a256b2990849060240160206040518083038185885af1158015610be6573d5f803e3d5ffd5b50505050506040513d601f19601f82011682018060405250810190610c0b91906114a5565b50610de6565b604051632961046560e21b81526001600160a01b03868116600483015285169063a5841194906024016020604051808303815f875af1158015610c56573d5f803e3d5ffd5b505050506040513d601f19601f82011682018060405250810190610c7a91906114a5565b506001600160a01b0383163014610d09576040516323b872dd60e01b81526001600160a01b0384811660048301528581166024830152604482018490528616906323b872dd906064016020604051808303815f875af1158015610cdf573d5f803e3d5ffd5b505050506040513d601f19601f82011682018060405250810190610d039190611678565b50610d7b565b60405163a9059cbb60e01b81526001600160a01b0385811660048301526024820184905286169063a9059cbb906044016020604051808303815f875af1158015610d55573d5f803e3d5ffd5b505050506040513d601f19601f82011682018060405250810190610d799190611678565b505b604051636a256b2960e01b81526001600160a01b038681166004830152851690636a256b29906024016020604051808303815f875af1158015610dc0573d5f803e3d5ffd5b505050506040513d601f19601f82011682018060405250810190610de491906114a5565b505b5050505050565b80610e2f57604051630b0d9c0960e01b81526001600160a01b038681166004830152848116602483015260448201849052851690630b0d9c0990606401610b5f565b836001600160a01b031663156e29f684610e58886001600160a01b03166001600160a01b031690565b6040516001600160e01b031960e085901b1681526001600160a01b0390921660048301526024820152604481018590526064015f604051808303815f87803b158015610ea2575f80fd5b505af1158015610eb4573d5f803e3d5ffd5b505050505050505050565b5f6001600160a01b038316610edf57506001600160a01b038116316109fe565b6040516370a0823160e01b81526001600160a01b0383811660048301528416906370a0823190602401602060405180830381865afa158015610f23573d5f803e3d5ffd5b505050506040513d601f19601f82011682018060405250810190610f4791906114a5565b90506109fe565b5f82815260208290526040808220905163789add5560e11b8152600481018290526001600160a01b0386169063f135baaa90602401602060405180830381865afa158015610f9e573d5f803e3d5ffd5b505050506040513d601f19601f82011682018060405250810190610fc291906114a5565b95945050505050565b634e487b7160e01b5f52604160045260245ffd5b60405160a0810167ffffffffffffffff8111828210171561100257611002610fcb565b60405290565b604051601f8201601f1916810167ffffffffffffffff8111828210171561103157611031610fcb565b604052919050565b6001600160a01b038116811461104d575f80fd5b50565b803561105b81611039565b919050565b5f60a08284031215611070575f80fd5b611078610fdf565b9050813561108581611039565b8152602082013561109581611039565b6020820152604082013562ffffff811681146110af575f80fd5b60408201526060820135600281900b81146110c8575f80fd5b60608201526110d960808301611050565b608082015292915050565b801515811461104d575f80fd5b5f60608284031215611101575f80fd5b6040516060810167ffffffffffffffff8111828210171561112457611124610fcb565b6040529050808235611135816110e4565b815260208381013590820152604083013561114f81611039565b6040919091015292915050565b5f6040828403121561116c575f80fd5b6040805190810167ffffffffffffffff8111828210171561118f5761118f610fcb565b60405290508082356111a0816110e4565b815260208301356111b0816110e4565b6020919091015292915050565b5f67ffffffffffffffff8211156111d6576111d6610fcb565b50601f01601f191660200190565b5f82601f8301126111f3575f80fd5b8135611206611201826111bd565b611008565b81815284602083860101111561121a575f80fd5b816020850160208301375f918101602001919091529392505050565b5f805f80610160858703121561124a575f80fd5b6112548686611060565b93506112638660a087016110f1565b925061127386610100870161115c565b915061014085013567ffffffffffffffff81111561128f575f80fd5b61129b878288016111e4565b91505092959194509250565b5f80602083850312156112b8575f80fd5b823567ffffffffffffffff8111156112ce575f80fd5b8301601f810185136112de575f80fd5b803567ffffffffffffffff8111156112f4575f80fd5b856020828401011115611305575f80fd5b6020919091019590945092505050565b5f81518084528060208401602086015e5f602082860101526020601f19601f83011685010191505092915050565b602081525f6113556020830184611315565b9392505050565b80516001600160a01b03908116835260208083015182169084015260408083015162ffffff169084015260608083015160020b9084015260809182015116910152565b602080825282516001600160a01b0316828201528281015180511515604080850191909152910151151560608301528201515f906113e0608084018261135c565b506060830151805115156101208401526020810151610140840152604001516001600160a01b03166101608301526080830151610180808401526114286101a0840182611315565b949350505050565b5f60208284031215611440575f80fd5b815167ffffffffffffffff811115611456575f80fd5b8201601f81018413611466575f80fd5b8051611474611201826111bd565b818152856020838501011115611488575f80fd5b8160208401602083015e5f91810160200191909152949350505050565b5f602082840312156114b5575f80fd5b5051919050565b5f602082840312156114cc575f80fd5b813567ffffffffffffffff8111156114e2575f80fd5b820161018081850312156114f4575f80fd5b6114fc610fdf565b813561150781611039565b8152611516856020840161115c565b60208201526115288560608401611060565b604082015261153b8561010084016110f1565b606082015261016082013567ffffffffffffffff81111561155a575f80fd5b611566868285016111e4565b608083015250949350505050565b61157e818561135c565b8251151560a0820152602083015160c082015260408301516001600160a01b031660e08201526101206101008201525f610fc2610120830184611315565b6020808252602b908201527f64656c74612e616d6f756e74302829206973206e6f7420657175616c20746f2060408201526a064656c74614166746572360ac1b606082015260800190565b6020808252602b908201527f64656c74612e616d6f756e74312829206973206e6f7420657175616c20746f2060408201526a64656c746141667465723160a81b606082015260800190565b5f600160ff1b820161167257634e487b7160e01b5f52601160045260245ffd5b505f0390565b5f60208284031215611688575f80fd5b8151611355816110e456fea2646970667358221220e9fcb6314061b222507f5f80c6be65e227531005c4a7e7de85a75fb60013f8ff64736f6c634300081a0033","linkReferences":{}},"methodIdentifiers":{"manager()":"481c6a75","swap((address,address,uint24,int24,address),(bool,int256,uint160),(bool,bool),bytes)":"2229d0b4","unlockCallback(bytes)":"91dd7346"},"id":26}