{"abi":[{"type":"constructor","inputs":[{"name":"controllerGasLimit","type":"uint256","internalType":"uint256"}],"stateMutability":"nonpayable"},{"type":"function","name":"MAX_TICK_SPACING","inputs":[],"outputs":[{"name":"","type":"int24","internalType":"int24"}],"stateMutability":"view"},{"type":"function","name":"MIN_TICK_SPACING","inputs":[],"outputs":[{"name":"","type":"int24","internalType":"int24"}],"stateMutability":"view"},{"type":"function","name":"allowance","inputs":[{"name":"","type":"address","internalType":"address"},{"name":"","type":"address","internalType":"address"},{"name":"","type":"uint256","internalType":"uint256"}],"outputs":[{"name":"","type":"uint256","internalType":"uint256"}],"stateMutability":"view"},{"type":"function","name":"approve","inputs":[{"name":"spender","type":"address","internalType":"address"},{"name":"id","type":"uint256","internalType":"uint256"},{"name":"amount","type":"uint256","internalType":"uint256"}],"outputs":[{"name":"","type":"bool","internalType":"bool"}],"stateMutability":"nonpayable"},{"type":"function","name":"balanceOf","inputs":[{"name":"","type":"address","internalType":"address"},{"name":"","type":"uint256","internalType":"uint256"}],"outputs":[{"name":"","type":"uint256","internalType":"uint256"}],"stateMutability":"view"},{"type":"function","name":"burn","inputs":[{"name":"from","type":"address","internalType":"address"},{"name":"id","type":"uint256","internalType":"uint256"},{"name":"amount","type":"uint256","internalType":"uint256"}],"outputs":[],"stateMutability":"nonpayable"},{"type":"function","name":"collectProtocolFees","inputs":[{"name":"recipient","type":"address","internalType":"address"},{"name":"currency","type":"address","internalType":"Currency"},{"name":"amount","type":"uint256","internalType":"uint256"}],"outputs":[{"name":"amountCollected","type":"uint256","internalType":"uint256"}],"stateMutability":"nonpayable"},{"type":"function","name":"donate","inputs":[{"name":"key","type":"tuple","internalType":"struct PoolKey","components":[{"name":"currency0","type":"address","internalType":"Currency"},{"name":"currency1","type":"address","internalType":"Currency"},{"name":"fee","type":"uint24","internalType":"uint24"},{"name":"tickSpacing","type":"int24","internalType":"int24"},{"name":"hooks","type":"address","internalType":"contract IHooks"}]},{"name":"amount0","type":"uint256","internalType":"uint256"},{"name":"amount1","type":"uint256","internalType":"uint256"},{"name":"hookData","type":"bytes","internalType":"bytes"}],"outputs":[{"name":"delta","type":"int256","internalType":"BalanceDelta"}],"stateMutability":"nonpayable"},{"type":"function","name":"extsload","inputs":[{"name":"slot","type":"bytes32","internalType":"bytes32"}],"outputs":[{"name":"","type":"bytes32","internalType":"bytes32"}],"stateMutability":"view"},{"type":"function","name":"extsload","inputs":[{"name":"startSlot","type":"bytes32","internalType":"bytes32"},{"name":"nSlots","type":"uint256","internalType":"uint256"}],"outputs":[{"name":"","type":"bytes","internalType":"bytes"}],"stateMutability":"view"},{"type":"function","name":"extsload","inputs":[{"name":"slots","type":"bytes32[]","internalType":"bytes32[]"}],"outputs":[{"name":"","type":"bytes32[]","internalType":"bytes32[]"}],"stateMutability":"view"},{"type":"function","name":"exttload","inputs":[{"name":"slots","type":"bytes32[]","internalType":"bytes32[]"}],"outputs":[{"name":"","type":"bytes32[]","internalType":"bytes32[]"}],"stateMutability":"view"},{"type":"function","name":"exttload","inputs":[{"name":"slot","type":"bytes32","internalType":"bytes32"}],"outputs":[{"name":"","type":"bytes32","internalType":"bytes32"}],"stateMutability":"view"},{"type":"function","name":"initialize","inputs":[{"name":"key","type":"tuple","internalType":"struct PoolKey","components":[{"name":"currency0","type":"address","internalType":"Currency"},{"name":"currency1","type":"address","internalType":"Currency"},{"name":"fee","type":"uint24","internalType":"uint24"},{"name":"tickSpacing","type":"int24","internalType":"int24"},{"name":"hooks","type":"address","internalType":"contract IHooks"}]},{"name":"sqrtPriceX96","type":"uint160","internalType":"uint160"},{"name":"hookData","type":"bytes","internalType":"bytes"}],"outputs":[{"name":"tick","type":"int24","internalType":"int24"}],"stateMutability":"nonpayable"},{"type":"function","name":"isOperator","inputs":[{"name":"","type":"address","internalType":"address"},{"name":"","type":"address","internalType":"address"}],"outputs":[{"name":"","type":"bool","internalType":"bool"}],"stateMutability":"view"},{"type":"function","name":"mint","inputs":[{"name":"to","type":"address","internalType":"address"},{"name":"id","type":"uint256","internalType":"uint256"},{"name":"amount","type":"uint256","internalType":"uint256"}],"outputs":[],"stateMutability":"nonpayable"},{"type":"function","name":"modifyLiquidity","inputs":[{"name":"key","type":"tuple","internalType":"struct PoolKey","components":[{"name":"currency0","type":"address","internalType":"Currency"},{"name":"currency1","type":"address","internalType":"Currency"},{"name":"fee","type":"uint24","internalType":"uint24"},{"name":"tickSpacing","type":"int24","internalType":"int24"},{"name":"hooks","type":"address","internalType":"contract IHooks"}]},{"name":"params","type":"tuple","internalType":"struct IPoolManager.ModifyLiquidityParams","components":[{"name":"tickLower","type":"int24","internalType":"int24"},{"name":"tickUpper","type":"int24","internalType":"int24"},{"name":"liquidityDelta","type":"int256","internalType":"int256"},{"name":"salt","type":"bytes32","internalType":"bytes32"}]},{"name":"hookData","type":"bytes","internalType":"bytes"}],"outputs":[{"name":"callerDelta","type":"int256","internalType":"BalanceDelta"},{"name":"feesAccrued","type":"int256","internalType":"BalanceDelta"}],"stateMutability":"nonpayable"},{"type":"function","name":"owner","inputs":[],"outputs":[{"name":"","type":"address","internalType":"address"}],"stateMutability":"view"},{"type":"function","name":"protocolFeeController","inputs":[],"outputs":[{"name":"","type":"address","internalType":"contract IProtocolFeeController"}],"stateMutability":"view"},{"type":"function","name":"protocolFeesAccrued","inputs":[{"name":"currency","type":"address","internalType":"Currency"}],"outputs":[{"name":"","type":"uint256","internalType":"uint256"}],"stateMutability":"view"},{"type":"function","name":"setOperator","inputs":[{"name":"operator","type":"address","internalType":"address"},{"name":"approved","type":"bool","internalType":"bool"}],"outputs":[{"name":"","type":"bool","internalType":"bool"}],"stateMutability":"nonpayable"},{"type":"function","name":"setProtocolFee","inputs":[{"name":"key","type":"tuple","internalType":"struct PoolKey","components":[{"name":"currency0","type":"address","internalType":"Currency"},{"name":"currency1","type":"address","internalType":"Currency"},{"name":"fee","type":"uint24","internalType":"uint24"},{"name":"tickSpacing","type":"int24","internalType":"int24"},{"name":"hooks","type":"address","internalType":"contract IHooks"}]},{"name":"newProtocolFee","type":"uint24","internalType":"uint24"}],"outputs":[],"stateMutability":"nonpayable"},{"type":"function","name":"setProtocolFeeController","inputs":[{"name":"controller","type":"address","internalType":"contract IProtocolFeeController"}],"outputs":[],"stateMutability":"nonpayable"},{"type":"function","name":"settle","inputs":[{"name":"currency","type":"address","internalType":"Currency"}],"outputs":[{"name":"paid","type":"uint256","internalType":"uint256"}],"stateMutability":"payable"},{"type":"function","name":"supportsInterface","inputs":[{"name":"interfaceId","type":"bytes4","internalType":"bytes4"}],"outputs":[{"name":"","type":"bool","internalType":"bool"}],"stateMutability":"view"},{"type":"function","name":"swap","inputs":[{"name":"key","type":"tuple","internalType":"struct PoolKey","components":[{"name":"currency0","type":"address","internalType":"Currency"},{"name":"currency1","type":"address","internalType":"Currency"},{"name":"fee","type":"uint24","internalType":"uint24"},{"name":"tickSpacing","type":"int24","internalType":"int24"},{"name":"hooks","type":"address","internalType":"contract IHooks"}]},{"name":"params","type":"tuple","internalType":"struct IPoolManager.SwapParams","components":[{"name":"zeroForOne","type":"bool","internalType":"bool"},{"name":"amountSpecified","type":"int256","internalType":"int256"},{"name":"sqrtPriceLimitX96","type":"uint160","internalType":"uint160"}]},{"name":"hookData","type":"bytes","internalType":"bytes"}],"outputs":[{"name":"swapDelta","type":"int256","internalType":"BalanceDelta"}],"stateMutability":"nonpayable"},{"type":"function","name":"sync","inputs":[{"name":"currency","type":"address","internalType":"Currency"}],"outputs":[{"name":"balance","type":"uint256","internalType":"uint256"}],"stateMutability":"nonpayable"},{"type":"function","name":"take","inputs":[{"name":"currency","type":"address","internalType":"Currency"},{"name":"to","type":"address","internalType":"address"},{"name":"amount","type":"uint256","internalType":"uint256"}],"outputs":[],"stateMutability":"nonpayable"},{"type":"function","name":"transfer","inputs":[{"name":"receiver","type":"address","internalType":"address"},{"name":"id","type":"uint256","internalType":"uint256"},{"name":"amount","type":"uint256","internalType":"uint256"}],"outputs":[{"name":"","type":"bool","internalType":"bool"}],"stateMutability":"nonpayable"},{"type":"function","name":"transferFrom","inputs":[{"name":"sender","type":"address","internalType":"address"},{"name":"receiver","type":"address","internalType":"address"},{"name":"id","type":"uint256","internalType":"uint256"},{"name":"amount","type":"uint256","internalType":"uint256"}],"outputs":[{"name":"","type":"bool","internalType":"bool"}],"stateMutability":"nonpayable"},{"type":"function","name":"transferOwnership","inputs":[{"name":"newOwner","type":"address","internalType":"address"}],"outputs":[],"stateMutability":"nonpayable"},{"type":"function","name":"unlock","inputs":[{"name":"data","type":"bytes","internalType":"bytes"}],"outputs":[{"name":"result","type":"bytes","internalType":"bytes"}],"stateMutability":"nonpayable"},{"type":"function","name":"updateDynamicLPFee","inputs":[{"name":"key","type":"tuple","internalType":"struct PoolKey","components":[{"name":"currency0","type":"address","internalType":"Currency"},{"name":"currency1","type":"address","internalType":"Currency"},{"name":"fee","type":"uint24","internalType":"uint24"},{"name":"tickSpacing","type":"int24","internalType":"int24"},{"name":"hooks","type":"address","internalType":"contract IHooks"}]},{"name":"newDynamicLPFee","type":"uint24","internalType":"uint24"}],"outputs":[],"stateMutability":"nonpayable"},{"type":"event","name":"Approval","inputs":[{"name":"owner","type":"address","indexed":true,"internalType":"address"},{"name":"spender","type":"address","indexed":true,"internalType":"address"},{"name":"id","type":"uint256","indexed":true,"internalType":"uint256"},{"name":"amount","type":"uint256","indexed":false,"internalType":"uint256"}],"anonymous":false},{"type":"event","name":"Initialize","inputs":[{"name":"id","type":"bytes32","indexed":false,"internalType":"PoolId"},{"name":"currency0","type":"address","indexed":true,"internalType":"Currency"},{"name":"currency1","type":"address","indexed":true,"internalType":"Currency"},{"name":"fee","type":"uint24","indexed":false,"internalType":"uint24"},{"name":"tickSpacing","type":"int24","indexed":false,"internalType":"int24"},{"name":"hooks","type":"address","indexed":false,"internalType":"contract IHooks"}],"anonymous":false},{"type":"event","name":"ModifyLiquidity","inputs":[{"name":"id","type":"bytes32","indexed":true,"internalType":"PoolId"},{"name":"sender","type":"address","indexed":true,"internalType":"address"},{"name":"tickLower","type":"int24","indexed":false,"internalType":"int24"},{"name":"tickUpper","type":"int24","indexed":false,"internalType":"int24"},{"name":"liquidityDelta","type":"int256","indexed":false,"internalType":"int256"}],"anonymous":false},{"type":"event","name":"OperatorSet","inputs":[{"name":"owner","type":"address","indexed":true,"internalType":"address"},{"name":"operator","type":"address","indexed":true,"internalType":"address"},{"name":"approved","type":"bool","indexed":false,"internalType":"bool"}],"anonymous":false},{"type":"event","name":"OwnershipTransferred","inputs":[{"name":"user","type":"address","indexed":true,"internalType":"address"},{"name":"newOwner","type":"address","indexed":true,"internalType":"address"}],"anonymous":false},{"type":"event","name":"ProtocolFeeControllerUpdated","inputs":[{"name":"protocolFeeController","type":"address","indexed":false,"internalType":"address"}],"anonymous":false},{"type":"event","name":"ProtocolFeeUpdated","inputs":[{"name":"id","type":"bytes32","indexed":true,"internalType":"PoolId"},{"name":"protocolFee","type":"uint24","indexed":false,"internalType":"uint24"}],"anonymous":false},{"type":"event","name":"Swap","inputs":[{"name":"id","type":"bytes32","indexed":true,"internalType":"PoolId"},{"name":"sender","type":"address","indexed":false,"internalType":"address"},{"name":"amount0","type":"int128","indexed":false,"internalType":"int128"},{"name":"amount1","type":"int128","indexed":false,"internalType":"int128"},{"name":"sqrtPriceX96","type":"uint160","indexed":false,"internalType":"uint160"},{"name":"liquidity","type":"uint128","indexed":false,"internalType":"uint128"},{"name":"tick","type":"int24","indexed":false,"internalType":"int24"},{"name":"fee","type":"uint24","indexed":false,"internalType":"uint24"}],"anonymous":false},{"type":"event","name":"Transfer","inputs":[{"name":"caller","type":"address","indexed":false,"internalType":"address"},{"name":"from","type":"address","indexed":true,"internalType":"address"},{"name":"to","type":"address","indexed":true,"internalType":"address"},{"name":"id","type":"uint256","indexed":true,"internalType":"uint256"},{"name":"amount","type":"uint256","indexed":false,"internalType":"uint256"}],"anonymous":false},{"type":"error","name":"AlreadyUnlocked","inputs":[]},{"type":"error","name":"CurrenciesOutOfOrderOrEqual","inputs":[]},{"type":"error","name":"CurrencyNotSettled","inputs":[]},{"type":"error","name":"DelegateCallNotAllowed","inputs":[]},{"type":"error","name":"InvalidCaller","inputs":[]},{"type":"error","name":"InvalidProtocolFee","inputs":[]},{"type":"error","name":"ManagerLocked","inputs":[]},{"type":"error","name":"NonZeroNativeValue","inputs":[]},{"type":"error","name":"PoolNotInitialized","inputs":[]},{"type":"error","name":"ProtocolFeeCannotBeFetched","inputs":[]},{"type":"error","name":"SwapAmountCannotBeZero","inputs":[]},{"type":"error","name":"TickSpacingTooLarge","inputs":[]},{"type":"error","name":"TickSpacingTooSmall","inputs":[]},{"type":"error","name":"UnauthorizedDynamicLPFeeUpdate","inputs":[]}],"bytecode":{"object":"0x60c0604052348015600e575f80fd5b50604051614c97380380614c97833981016040819052602b916077565b5f80546001600160a01b031916339081178255604051839282917f8be0079c531659141344cd1fd0a4f28419497f9722a3daafe3b4186f6b6457e0908290a350608052503060a052608d565b5f602082840312156086575f80fd5b5051919050565b60805160a051614be26100b55f395f61163b01525f8181611f8f0152611fdd0152614be25ff3fe6080604052600436106101e5575f3560e01c806360460f0611610108578063a58411941161009d578063f135baaa1161006d578063f135baaa14610604578063f2fde38b14610623578063f3cd914c14610642578063f5298aca14610661578063fe99049a14610680575f80fd5b8063a58411941461056e578063b6363cf21461058d578063dbd035ff146105c6578063f02de3b2146105e5575f80fd5b80638161b874116100d85780638161b874146104c25780638da5cb5b146104e157806397e8cd4e146105175780639bf6645f14610542575f80fd5b806360460f061461045c578063695c5bf5146104715780636a256b29146104905780637e87ce7d146104a3575f80fd5b80632d7713891161017e578063527596511161014e57806352759651146103ae578063558a7297146103cd578063598af9e7146103ec5780635a6bcfda14610428575f80fd5b80632d7713891461032557806335fd631a14610344578063426a84931461037057806348c894911461038f575f80fd5b80630b0d9c09116101b95780630b0d9c09146102a7578063156e29f6146102c85780631e2eaeaf146102e7578063234266d714610306575f80fd5b8062fdd58e146101e957806301ffc9a71461023257806307eff0dd14610261578063095bcdb614610288575b5f80fd5b3480156101f4575f80fd5b5061021f61020336600461402a565b600460209081525f928352604080842090915290825290205481565b6040519081526020015b60405180910390f35b34801561023d575f80fd5b5061025161024c366004614054565b61069f565b6040519015158152602001610229565b34801561026c575f80fd5b50610275600181565b60405160029190910b8152602001610229565b348015610293575f80fd5b506102516102a236600461407b565b6106d5565b3480156102b2575f80fd5b506102c66102c13660046140ad565b61077c565b005b3480156102d3575f80fd5b506102c66102e236600461407b565b6107cd565b3480156102f2575f80fd5b5061021f6103013660046140eb565b610808565b348015610311575f80fd5b5061021f61032036600461426a565b610812565b348015610330575f80fd5b506102c661033f3660046142ce565b6108c2565b34801561034f575f80fd5b5061036361035e3660046142e9565b610963565b6040516102299190614309565b34801561037b575f80fd5b5061025161038a36600461407b565b610993565b34801561039a575f80fd5b506103636103a936600461433e565b6109f7565b3480156103b9575f80fd5b506102c66103c836600461437c565b610aba565b3480156103d8575f80fd5b506102516103e73660046143bd565b610b29565b3480156103f7575f80fd5b5061021f6104063660046140ad565b600560209081525f938452604080852082529284528284209052825290205481565b348015610433575f80fd5b506104476104423660046143e7565b610b98565b60408051928352602083019190915201610229565b348015610467575f80fd5b50610275617fff81565b34801561047c575f80fd5b5061027561048b366004614489565b610d2b565b61021f61049e3660046142ce565b610ef4565b3480156104ae575f80fd5b506102c66104bd36600461437c565b610f8b565b3480156104cd575f80fd5b5061021f6104dc3660046140ad565b611037565b3480156104ec575f80fd5b505f546104ff906001600160a01b031681565b6040516001600160a01b039091168152602001610229565b348015610522575f80fd5b5061021f6105313660046142ce565b60016020525f908152604090205481565b34801561054d575f80fd5b5061056161055c3660046144d0565b6110c6565b604051610229919061453f565b348015610579575f80fd5b5061021f6105883660046142ce565b6110f3565b348015610598575f80fd5b506102516105a7366004614581565b600360209081525f928352604080842090915290825290205460ff1681565b3480156105d1575f80fd5b506105616105e03660046144d0565b61111b565b3480156105f0575f80fd5b506002546104ff906001600160a01b031681565b34801561060f575f80fd5b5061021f61061e3660046140eb565b611147565b34801561062e575f80fd5b506102c661063d3660046142ce565b611151565b34801561064d575f80fd5b5061021f61065c3660046145b8565b6111e3565b34801561066c575f80fd5b506102c661067b36600461407b565b611329565b34801561068b575f80fd5b5061025161069a366004614656565b611364565b5f6301ffc9a760e01b6001600160e01b0319831614806106cf5750630f632fb360e01b6001600160e01b03198316145b92915050565b335f9081526004602090815260408083208584529091528120805483919083906107009084906146ad565b90915550506001600160a01b0384165f908152600460209081526040808320868452909152812080548492906107379084906146c0565b909155505060408051338082526020820185905285926001600160a01b038816925f80516020614b4d83398151915291015b60405180910390a45060015b9392505050565b5f80516020614b6d8339815191525c61079f5761079f6354e3ca0d60e01b6114c3565b6107b4836107ac836114cb565b5f03336114e3565b6107c86001600160a01b0384168383611557565b505050565b5f80516020614b6d8339815191525c6107f0576107f06354e3ca0d60e01b6114c3565b6107fd826107ac836114cb565b6107c88383836115be565b5f81545f5260205ff35b5f5f80516020614b6d8339815191525c610836576108366354e3ca0d60e01b6114c3565b61083e611630565b5f61085d61084d8860a0902090565b5f90815260066020526040902090565b905061086881611672565b6080870151610884906001600160a01b03168888888888611696565b61088f818787611723565b915061089c8783336117d6565b60808701516108b8906001600160a01b031688888888886117fe565b5095945050505050565b5f546001600160a01b0316331461090f5760405162461bcd60e51b815260206004820152600c60248201526b15539055551213d49256915160a21b60448201526064015b60405180910390fd5b600280546001600160a01b0319166001600160a01b0383169081179091556040519081527fb4bd8ef53df690b9943d3318996006dbb82a25f54719d8c8035b516a2a5b8acc9060200160405180910390a150565b606060205f528160051b6020528160051b60400160405b8454815260019094019360200181811061097a5750805ff35b335f8181526005602090815260408083206001600160a01b03881680855290835281842087855290925280832085905551919285927fb3fd5071835887567a0671151121894ddccc2842f1d10bedad13e0d17cace9a7906107699087815260200190565b60605f80516020614b6d8339815191525c15610a1d57610a1d6328486b6360e11b6114c3565b610a2561183e565b6040516348eeb9a360e11b815233906391dd734690610a4a90869086906004016146fb565b5f604051808303815f875af1158015610a65573d5f803e3d5ffd5b505050506040513d5f823e601f3d908101601f19168201604052610a8c919081019061470e565b90505f80516020614b8d8339815191525c15610ab257610ab2635212cba160e01b6114c3565b6106cf611851565b604082015162ffffff1662800000141580610aeb575081608001516001600160a01b0316336001600160a01b031614155b15610b0057610b006330d2164160e01b6114c3565b610b0e8162ffffff16611863565b60a082205f8181526006602052604090206107c89083611883565b335f8181526003602090815260408083206001600160a01b038716808552908352818420805460ff191687151590811790915591519182529293917fceb576d9f15e4e200fdb5096d64d5dfd667e16def20c1eefd14256d8e3faa267910160405180910390a350600192915050565b5f805f80516020614b6d8339815191525c610bbd57610bbd6354e3ca0d60e01b6114c3565b610bc5611630565b60a086205f818152600660205260409020610bdf81611672565b6080880151610bfa906001600160a01b03168989898961189e565b5f610c616040518060c00160405280336001600160a01b031681526020018a5f015160020b81526020018a6020015160020b8152602001610c3e8b6040015161197e565b600f0b81526060808d015160020b60208301528b01516040909101528390611999565b94509050610c6f8185611cf5565b9450336001600160a01b0316837f541c041c2cce48e614b3de043c9280f06b6164c0a1741649e2de3c3d375f79748a5f01518b602001518c60400151604051610cd393929190600293840b81529190920b6020820152604081019190915260600190565b60405180910390a360808901515f90610cf9906001600160a01b03168b8b898c8c611d28565b90965090508015610d1357610d138a828c608001516117d6565b610d1e8a87336117d6565b5050505094509492505050565b5f610d34611630565b6060850151617fff60029190910b1315610d5857610d58635815aee160e11b6114c3565b600160020b856060015160020b1215610d7b57610d7b630b7f3b4b60e11b6114c3565b845160208601516001600160a01b03908116911610610da457610da463eaa6c6eb60e01b6114c3565b610dc8856040015186608001516001600160a01b0316611e4790919063ffffffff16565b610de3576080850151610de390630732d7b560e51b90611f08565b5f610df6866040015162ffffff16611f14565b6080870151909150610e14906001600160a01b031687878787611f39565b60a086205f610e2288611f78565b5f848152600660205260409020909250610e3f91508883866120ea565b6080890151909450610e5e906001600160a01b03168989878a8a612149565b87602001516001600160a01b0316885f01516001600160a01b03167f3fd553db44f207b1f41348cfc4d251860814af9eadc470e8e7895e4d120511f4848b604001518c606001518d60800151604051610ee1949392919093845262ffffff92909216602084015260020b60408301526001600160a01b0316606082015260800190565b60405180910390a3505050949350505050565b5f5f80516020614b6d8339815191525c610f1857610f186354e3ca0d60e01b6114c3565b6001600160a01b038216610f2d575034610f73565b3415610f4357610f436319d245cf60e01b6114c3565b5f610f56836001600160a01b031661218a565b90505f610f62846110f3565b9050610f6e82826146ad565b925050505b610f8682610f80836114cb565b336114e3565b919050565b6002546001600160a01b03163314610fad57610fad6348f5c3ed60e01b6114c3565b6103e9610fff821610623e900062ffffff83161016610fd657610fd6631752ff0760e31b6114c3565b60a08220610ff882610ff2835f90815260066020526040902090565b906121e4565b60405162ffffff8316815281907fe9c42593e71f84403b84352cd168d693e2c9fcd1fdbcc3feb21d92b43e6696f99060200160405180910390a2505050565b6002545f906001600160a01b0316331461105b5761105b6348f5c3ed60e01b6114c3565b81156110675781611080565b6001600160a01b0383165f908152600160205260409020545b6001600160a01b0384165f908152600160205260408120805492935083929091906110ac9084906146ad565b9091555061077590506001600160a01b0384168583611557565b6060604060045f378160051b6040018360405b81355c8152602091820191018281106110d9575b5050805ff35b5f611106826001600160a01b03166121f9565b9050610f866001600160a01b03831682612275565b6060604060045f378160051b6040018360405b813554815260209182019101828110156110ed5761112e565b5f815c5f5260205ff35b5f546001600160a01b031633146111995760405162461bcd60e51b815260206004820152600c60248201526b15539055551213d49256915160a21b6044820152606401610906565b5f80546001600160a01b0319166001600160a01b0383169081178255604051909133917f8be0079c531659141344cd1fd0a4f28419497f9722a3daafe3b4186f6b6457e09190a350565b5f5f80516020614b6d8339815191525c611207576112076354e3ca0d60e01b6114c3565b61120f611630565b83602001515f0361122a5761122a63be8b850760e01b6114c3565b60a085205f81815260066020526040902061124481611672565b60808701515f9081908190611265906001600160a01b03168b8b8b8b6122b6565b8093508195508294505050506112d484866040518060a001604052808e6060015160020b81526020018d5f0151151581526020018681526020018d604001516001600160a01b031681526020018562ffffff168152508c5f01516112cd578d602001516123c5565b8d516123c5565b60808b01519096505f92506112f891506001600160a01b03168a8a888b8b886124bf565b909550905080156113125761131289828b608001516117d6565b61131d8986336117d6565b50505050949350505050565b5f80516020614b6d8339815191525c61134c5761134c6354e3ca0d60e01b6114c3565b61135982610f80836114cb565b6107c88383836125e2565b5f336001600160a01b038616148015906113a157506001600160a01b0385165f90815260036020908152604080832033845290915290205460ff16155b15611411576001600160a01b0385165f90815260056020908152604080832033845282528083208684529091529020545f19811461140f576113e383826146ad565b6001600160a01b0387165f90815260056020908152604080832033845282528083208884529091529020555b505b6001600160a01b0385165f908152600460209081526040808320868452909152812080548492906114439084906146ad565b90915550506001600160a01b0384165f9081526004602090815260408083208684529091528120805484929061147a9084906146c0565b9091555050604080513381526020810184905284916001600160a01b0380881692908916915f80516020614b4d833981519152910160405180910390a45060015b949350505050565b805f5260045ffd5b5f6001607f1b82106114df576114df6126a6565b5090565b81600f0b5f036114f257505050565b5f8181526001600160a01b038416602052604081205c90611517600f85900b836147a0565b9050805f0361152d576115286126b3565b61153c565b815f0361153c5761153c6126db565b6115506001600160a01b0386168483612703565b5050505050565b6001600160a01b03831661157e575f805f8084865af16107c85763f4b3b1bc5f526004601cfd5b816014528060345263a9059cbb60601b5f5260205f604460105f875af13d1560015f511417166115b55763f27f64e45f526004601cfd5b5f603452505050565b6001600160a01b0383165f908152600460209081526040808320858452909152812080548392906115f09084906146c0565b9091555050604080513381526020810183905283916001600160a01b038616915f915f80516020614b4d83398151915291015b60405180910390a4505050565b306001600160a01b037f00000000000000000000000000000000000000000000000000000000000000001614611670576116706306c4a1c760e11b6114c3565b565b80546001600160a01b03165f036116935761169363486aa30760e01b6114c3565b50565b85336001600160a01b0382161461171a57602087161561171a5761171863b6a8b0fa60e01b3388888888886040516024016116d69695949392919061480a565b60408051601f198184030181529190526020810180516001600160e01b03166001600160e01b0319909316929092179091526001600160a01b03891690612719565b505b50505050505050565b60038301545f906001600160801b031680820361174a5761174a63a74f97ab60e01b6114c3565b611778611756856114cb565b5f03611761856114cb565b5f0360809190911b6001600160801b039091161790565b915083156117a45761179884600160801b836001600160801b031661279a565b60018601805490910190555b82156117ce576117c283600160801b836001600160801b031661279a565b60028601805490910190555b509392505050565b82516117ec906117e68460801d90565b836114e3565b6107c883602001516117e684600f0b90565b85336001600160a01b0382161461171a57601087161561171a5761171863e1b4af6960e01b3388888888886040516024016116d69695949392919061480a565b60015f80516020614b6d8339815191525d565b5f5f80516020614b6d8339815191525d565b620f424062ffffff8216111561169357611693637e2df70960e11b6114c3565b61188c82611672565b81546118989082612836565b90915550565b84336001600160a01b03821614611976575f84604001511380156118c55750610800861615155b156119365761193063259982e560e01b33878787876040516024016118ee959493929190614854565b60408051601f198184030181529190526020810180516001600160e01b03166001600160e01b0319909316929092179091526001600160a01b03881690612719565b50611976565b5f84604001511315801561194d5750610200861615155b156119765761171a6321d0ee7060e01b33878787876040516024016118ee959493929190614854565b505050505050565b5f6001607f1b820160801c611991575090565b610f866126a6565b6060810151602082015160408301515f92839290916119b88282612851565b604080516080810182525f80825260208201819052918101829052606081019190915283600f0b5f14611afa576119f18884865f6128b5565b6001600160801b0316602083015215158152611a1088838660016128b5565b6001600160801b03166060830152151560408201525f600f85900b12611abf575f611a5d8860800151620d89e7198190058102620d89e8829005820203056001016001600160801b030490565b9050806001600160801b031682602001516001600160801b03161115611a8e57611a8e63b8e3c38560e01b85611f08565b806001600160801b031682606001516001600160801b03161115611abd57611abd63b8e3c38560e01b84611f08565b505b805115611adb576080870151611adb9060058a01908590612966565b806040015115611afa576080870151611afa9060058a01908490612966565b5f80611b078a86866129a8565b8a5160a08c01516026908152600688815260038a90525f928352603a600c20918390529082528d016020526040812092945090925080611b49838a8787612a5c565b91509150611b75611b59836114cb565b611b62836114cb565b6001600160801b031660809190911b1790565b995050505050505f84600f0b1215611bde57805115611bb157600283810b5f90815260048a016020526040812081815560018101829055909101555b806040015115611bde57600282810b5f90815260048a016020526040812081815560018101829055909101555b5082600f0b5f14611ceb5786545f80611bfa8360a01c60020b90565b6001600160a01b038416915091508460020b8260020b1215611c4957611c42611c3c611c37611c2888612b15565b611c3188612b15565b8a612dc6565b61197e565b60801b90565b9750611ce7565b8360020b8260020b1215611cc257611c80611c6a611c3783611c3188612b15565b611b62611c37611c7989612b15565b858b612dfe565b60038b0154909850611c9b906001600160801b031687612e2a565b60038b0180546001600160801b0319166001600160801b0392909216919091179055611ce7565b611ce45f611b62611c37611cd589612b15565b611cde89612b15565b8b612dfe565b97505b5050505b5050509250929050565b5f608082811d9084901d01600f83810b9085900b01611d1f611d168361197e565b611b628361197e565b95945050505050565b5f806001600160a01b0388163303611d4457508390505f611e3c565b8491505f86604001511315611dd057610400881615611dcb57611dbc338888888888604051602401611d7b969594939291906148b4565b60408051601f198184030181529190526020810180516001600160e01b0316625a2a8160e81b17905260028a1615155b6001600160a01b038b169190612e44565b9050611dc88282612e6c565b91505b611e3c565b610100881615611e3c57611e2d338888888888604051602401611df8969594939291906148b4565b60408051601f198184030181529190526020810180516001600160e01b03166346d95b2960e11b17905260018a161515611dab565b9050611e398282612e6c565b91505b965096945050505050565b5f60808316158015611e5b57506008831615155b15611e6757505f6106cf565b60408316158015611e7a57506004831615155b15611e8657505f6106cf565b6104008316158015611e9a57506002831615155b15611ea657505f6106cf565b6101008316158015611eba57506001831615155b15611ec657505f6106cf565b6001600160a01b03831615611ef757613fff8316151580611ef257506280000062ffffff831614610775565b610775565b5062ffffff16628000001415919050565b815f528060045260245ffd5b5f6280000062ffffff831603611f2b57505f919050565b6114df8262ffffff16611863565b84336001600160a01b03821614611976576120008616156119765761171a633440d82060e01b33878787876040516024016118ee95949392919061491b565b6002545f9081906001600160a01b0316156120e5577f00000000000000000000000000000000000000000000000000000000000000005a1015611fc557611fc5630f724b8160e11b6114c3565b6002546040515f9182916001600160a01b03909116907f00000000000000000000000000000000000000000000000000000000000000009061200b90889060240161495c565b60408051601f198184030181529181526020820180516001600160e01b031663553bfc3760e01b17905251612040919061496a565b5f604051808303815f8787f1925050503d805f811461207a576040519150601f19603f3d011682016040523d82523d5f602084013e61207f565b606091505b5091509150811580612092575060208151115b156120a357505f9485945092505050565b602081015162ffffff8116811480156120cd57506103e9610fff821610623e900062ffffff831610165b6120d8575f806120dc565b6001815b90955093505050505b915091565b83545f906001600160a01b03161561210c5761210c637983c05160e01b6114c3565b61211584612e8d565b905061213e82612138856121326001600160a01b0389168661316a565b90613185565b90612836565b909455509192915050565b85336001600160a01b0382161461171a5761100087161561171a5761171863a910f80f60e01b3388888888886040516024016116d696959493929190614980565b7f1e0745a7db1623981f0b2a5d4232364c00787266eb75ad546f190e6cebe9bd955f908152602082905260408120805c918290036121d2576121d26310ee97c960e31b6114c3565b5f1982036121de575f91505b50919050565b6121ed82611672565b81546118989082613185565b5f6001600160a01b03821661220f575047919050565b6040516370a0823160e01b81523060048201526001600160a01b038316906370a0823190602401602060405180830381865afa158015612251573d5f803e3d5ffd5b505050506040513d601f19601f820116820180604052508101906106cf91906149c9565b805f0361228057505f195b7f1e0745a7db1623981f0b2a5d4232364c00787266eb75ad546f190e6cebe9bd955f90815260208390526040902081815d505050565b60208301515f806001600160a01b03881633036122d5575f91506123ba565b60808816156123ba575f61232b89338a8a8a8a6040516024016122fc9594939291906149e0565b60408051601f198184030181529190526020810180516001600160e01b03166315d7892d60e21b179052612719565b9050612347886040015162ffffff1662ffffff16628000001490565b1561235457606081015191505b60088916156123b857604081015192505f61236f8460801d90565b905080600f0b5f146123b6575f851261238c600f83900b876147a0565b95508061239b575f861261239f565b5f86135b156123b4576123b4637d05b8eb60e11b6114c3565b505b505b505b955095509592505050565b5f808080806123d489886131a0565b93509350935093505f831115612402576001600160a01b0386165f9081526001602052604090208054840190555b877f40e9cecb9f5f1f1c5b9c97dec2917b7ee92e57ba5563708daca94dd84ad7112f3361242f8760801d90565b61243988600f0b90565b60408087015160a0880151606089015192516124aa96959493908b906001600160a01b039788168152600f96870b60208201529490950b60408501529190941660608301526001600160801b0393909316608082015260029290920b60a083015262ffffff1660c082015260e00190565b60405180910390a25091979650505050505050565b5f806001600160a01b03891633036124db57508490505f6125d6565b5f6124e68460801d90565b90505f6124f385600f0b90565b905060408b161561256d57612560611c37338c8c8c8c8c60405160240161251f96959493929190614a39565b60408051601f198184030181529190526020810180516001600160e01b031663b47b2fb160e01b17905260048e1615156001600160a01b038f169190612e44565b61256a9082614a99565b90505b5f81600f0b5f141580612583575082600f0b5f14155b156125ce57895160208b01515f13901515146125ae576001600160801b038316608083901b176125bf565b6001600160801b038216608084901b175b90506125cb8982612e6c565b98505b889450925050505b97509795505050505050565b336001600160a01b038416811480159061262157506001600160a01b038085165f9081526003602090815260408083209385168352929052205460ff16155b15612695576001600160a01b038085165f9081526005602090815260408083209385168352928152828220868352905220545f1981146126935761266583826146ad565b6001600160a01b038087165f9081526005602090815260408083209387168352928152828220888352905220555b505b6126a084848461383b565b50505050565b6393dafdf15f526004601cfd5b5f80516020614b8d8339815191525c600181039050805f80516020614b8d8339815191525d50565b5f80516020614b8d8339815191525c600181019050805f80516020614b8d8339815191525d50565b5f82815260208490526040902081815d50505050565b60605f808351602085015f875af1612745573d61273d576336bc48c55f526004601cfd5b3d5f803e3d5ffd5b6040519050601f19603f3d011681016040523d81523d5f602083013e60208201516001600160e01b03191661277b826020015190565b6001600160e01b031916146106cf576106cf631e048e1d60e01b6114c3565b5f838302815f19858709828110838203039150508084116127b9575f80fd5b805f036127cb57508290049050610775565b5f848688095f868103871696879004966002600389028118808a02820302808a02820302808a02820302808a02820302808a02820302808a02909103029181900381900460010186841190950394909402919094039290920491909117919091029150509392505050565b60d01b62ffffff60d01b1662ffffff60d01b19919091161790565b8060020b8260020b126128705761287063c4433ed560e01b83836138a4565b620d89e719600283900b12156128915761289163d5e2f7ab60e01b83611f08565b620d89e8600282900b13156128b1576128b163035aeeff60e31b82611f08565b5050565b600283900b5f908152600485016020526040812080548291906001600160801b0381169060801d6128e68288612e2a565b6001600160801b03808216159084168015919091141596509094505f0361293057885460a01c60020b60020b8860020b13612930576001808a0154908401556002808a0154908401555b5f86612945576129408883614a99565b61294f565b61294f8883614ac6565b90508060801b851784555050505094509492505050565b808207156129835763d4d8f3e65f5281602052806040526044601cfd5b80820591508160081d5f528260205260405f20600160ff84161b815418815550505050565b600282810b5f81815260048601602052604080822085850b83529082208754929485949293919260a09290921c900b908112156129fe578160010154836001015403945081600201548360020154039350612a51565b8560020b8160020b12612a2a578260010154826001015403945082600201548260020154039350612a51565b81600101548360010154896001015403039450816002015483600201548960020154030393505b505050935093915050565b83545f9081906001600160801b0316600f86900b8203612a9b57806001600160801b03165f03612a9657612a96632bbfae4960e21b6114c3565b612ac1565b612aa58187612e2a565b87546001600160801b0319166001600160801b03919091161787555b612adf87600101548603826001600160801b0316600160801b61279a565b9250612aff87600201548503826001600160801b0316600160801b61279a565b6001880195909555505060029094015591929050565b5f60ff82901d80830118620d89e8811115612b375763ce8ef7fc5f526004601cfd5b7001fffcb933bd6fad37aa2d162d1a5940016001821602600160801b186002821615612b73576ffff97272373d413259a46990580e213a0260801c5b6004821615612b92576ffff2e50f5f656932ef12357cf3c7fdcc0260801c5b6008821615612bb1576fffe5caca7e10e4e61c3624eaa0941cd00260801c5b6010821615612bd0576fffcb9843d60f6159c9db58835c9266440260801c5b6020821615612bef576fff973b41fa98c081472e6896dfb254c00260801c5b6040821615612c0e576fff2ea16466c96a3843ec78b326b528610260801c5b6080821615612c2d576ffe5dee046a99a2a811c461f1969c30530260801c5b610100821615612c4d576ffcbe86c7900a88aedcffc83b479aa3a40260801c5b610200821615612c6d576ff987a7253ac413176f2b074cf7815e540260801c5b610400821615612c8d576ff3392b0822b70005940c7a398e4b70f30260801c5b610800821615612cad576fe7159475a2c29b7443b29c7fa6e889d90260801c5b611000821615612ccd576fd097f3bdfd2022b8845ad8f792aa58250260801c5b612000821615612ced576fa9f746462d870fdf8a65dc1f90e061e50260801c5b614000821615612d0d576f70d869a156d2a1b890bb3df62baf32f70260801c5b618000821615612d2d576f31be135f97d08fd981231505542fcfa60260801c5b62010000821615612d4e576f09aa508b5b7a84e1c677de54f3e99bc90260801c5b62020000821615612d6e576e5d6af8dedb81196699c329225ee6040260801c5b62040000821615612d8d576d2216e584f5fa1ea926041bedfe980260801c5b62080000821615612daa576b048a170391f7dc42444e8fa20260801c5b5f841315612db6575f19045b63ffffffff0160201c9392505050565b5f8082600f0b12612ded57612de6612de185858560016138b4565b61396e565b5f036114bb565b6114bb612de18585855f035f6138b4565b5f8082600f0b12612e1957612de6612de1858585600161397a565b6114bb612de18585855f035f61397a565b818101608081901c156106cf576393dafdf15f526004601cfd5b5f80612e508585612719565b905082612e60575f915050610775565b60400151949350505050565b5f608082811d9084901d03600f83810b9085900b03611d1f611d168361197e565b5f73fffd8963efd1fc6a506488495d951d51639616826401000276a383031115612ebe576331efafe85f526004601cfd5b640100000000600160c01b03602083901b166001600160801b03811160071b81811c6001600160401b03811160061b90811c63ffffffff811160051b90811c61ffff811160041b90811c60ff8111600390811b91821c600f811160021b90811c918211600190811b92831c97908811961790941790921717909117171760808110612f5157607f810383901c9150612f5b565b80607f0383901b91505b908002607f81811c60ff83811c9190911c800280831c81831c1c800280841c81841c1c800280851c81851c1c800280861c81861c1c800280871c81871c1c800280881c81881c1c800280891c81891c1c8002808a1c818a1c1c8002808b1c818b1c1c8002808c1c818c1c1c8002808d1c818d1c1c8002808e1c9c81901c9c909c1c80029c8d901c9e9d607f198f0160401b60c09190911c678000000000000000161760c19b909b1c674000000000000000169a909a1760c29990991c672000000000000000169890981760c39790971c671000000000000000169690961760c49590951c670800000000000000169490941760c59390931c670400000000000000169290921760c69190911c670200000000000000161760c79190911c670100000000000000161760c89190911c6680000000000000161760c99190911c6640000000000000161760ca9190911c6620000000000000161760cb9190911c6610000000000000161760cc9190911c6608000000000000161760cd9190911c66040000000000001617693627a301d71055774c8581026f028f6481ab7f045a5af012a19d003aa9198101608090811d906fdb2df09e81959a81455e260799a0632f8301901d600281810b9083900b1461315b57886001600160a01b031661314082612b15565b6001600160a01b03161115613155578161315d565b8061315d565b815b9998505050505050505050565b60a01b62ffffff60a01b1662ffffff60a01b19919091161790565b60b81b62ffffff60b81b1662ffffff60b81b19919091161790565b6040805160c0810182525f80825260208201819052918101829052606081018290526080810182905260a08101829052819081908554602086015160038801546001600160801b03165f826131fd57610fff60c485901c16613207565b610fff60b885901c165b60408a81015187525f60208801526001600160a01b0386169087015260a085901c60020b606087015261ffff1690508261324557896002015461324b565b89600101545b6080868101919091526001600160801b03831660a08701528901515f9062400000166132805760d085901c62ffffff16613292565b6132928a6080015162ffffff166139b1565b905081156132bf576132ba62ffffff831682620f424082820281810491900615150191010390565b6132c1565b805b60408b01519097505f1390508015816132e1575062ffffff8716620f4240145b156132f6576132f6634b10312360e11b6114c3565b89604001515f03613311575f80985098505050505050613832565b831561338e5760608a01516001600160a01b03868116911610613350576133506001600160a01b0386165b60608c0151637c9c6e8f60e01b91906138a4565b6401000276a36001600160a01b03168a606001516001600160a01b0316116133895760608a015161338990639e4d7cc760e01b90611f08565b6133ff565b60608a01516001600160a01b038681169116116133b7576133b76001600160a01b03861661333c565b73fffd8963efd1fc6a506488495d951d5263988d266001600160a01b03168a606001516001600160a01b0316106133ff5760608a01516133ff90639e4d7cc760e01b90611f08565b6040805160e0810182525f80825260208201819052918101829052606081018290526080810182905260a0810182905260c08101919091525b8651158061345f57508a606001516001600160a01b031687604001516001600160a01b0316145b61373b5760408701516001600160a01b0316815260608701518b516134899160058f0191886139c0565b1515604083015260020b60208201819052620d89e719126134af57620d89e71960208201525b620d89e860020b816020015160020b126134cd57620d89e860208201525b6134da8160200151612b15565b6001600160a01b031660608281018290526040890151908d015161350f928082118918908218021860a08a01518a518c613a98565b60c085015260a084015260808301526001600160a01b03166040880152816135735761353e8160a0015161396e565b875103875260c0810151608082015161355a91612de1916146c0565b87602001516135699190614af3565b60208801526135ae565b6135868160c0015182608001510161396e565b875101875260a08101516135999061396e565b87602001516135a891906147a0565b60208801525b82156135ea575f620f4240848360c0015184608001510102816135d3576135d3614b19565b60c084018051929091049182900390529990990198505b60a08701516001600160801b0316156136295761361d8160c00151600160801b8960a001516001600160801b031661279a565b60808801805190910190525b80606001516001600160a01b031687604001516001600160a01b031603613700578060400151156136eb575f808661366a578d600101548960800151613675565b88608001518e600201545b915091505f6136c08f85602001518585600292830b5f90815260049094016020526040909320600181018054909203909155908101805490920390915554600160801b9004600f0b90565b905087156136cb575f035b6136d98a60a0015182612e2a565b6001600160801b031660a08b01525050505b602081015185900360020b6060880152613438565b805f01516001600160a01b031687604001516001600160a01b0316146137365761372d8760400151612e8d565b60020b60608801525b613438565b613773876040015161375a89606001518961316a90919063ffffffff16565b6001600160a01b0319166001600160a01b039091161790565b8c5560a08701516001600160801b038581169116146137b35760a087015160038d0180546001600160801b0319166001600160801b039092169190911790555b846137c757608087015160028d01556137d2565b608087015160018d01555b81151585151514613806576137ff6137ed886020015161197e565b611b62895f01518e604001510361197e565b995061382b565b61382861381b885f01518d604001510361197e565b611b62896020015161197e565b99505b5050505050505b92959194509250565b6001600160a01b0383165f9081526004602090815260408083208584529091528120805483929061386d9084906146ad565b9091555050604080513381526020810183905283915f916001600160a01b038716915f80516020614b4d8339815191529101611623565b825f52816004528060245260445ffd5b5f836001600160a01b0316856001600160a01b031611156138d3579293925b846138e45762bfc9215f526004601cfd5b600160601b600160e01b03606084901b166001600160a01b03868603168361393757866001600160a01b03166139248383896001600160a01b031661279a565b8161393157613931614b19565b04613963565b61396361394e8383896001600160a01b0316613c1e565b886001600160a01b0316808204910615150190565b979650505050505050565b5f808212611991575090565b5f83850360ff81901d90810118600160601b8461399881848461279a565b9350845f83858409111684019350505050949350505050565b62bfffff8116610f8681611863565b5f808385078113848605038315613a2d57600881901d600181810b5f90815260208a905260409020545f1960ff851692831b800101908116801515955085613a0f57888360ff16860302613a22565b88613a1982613c4e565b840360ff168603025b965050505050613a8e565b6001908101600881901d80830b5f90815260208a905260409020545f1960ff841694851b011990811680151595509293919285613a7457888360ff0360ff16860102613a87565b8883613a7f83613cec565b0360ff168601025b9650505050505b5094509492505050565b5f80808062ffffff85166001600160a01b03808a16908b1610158288128015613b91575f613ad18a5f0385620f424003620f424061279a565b905082613aea57613ae58d8d8d600161397a565b613af7565b613af78c8e8d60016138b4565b9650868110613b2b578b9750620f42408414613b2257613b1d878586620f424003613c1e565b613b24565b865b9450613b67565b613b378d8c8386613dd2565b975082613b5057613b4b8d898d600161397a565b613b5d565b613b5d888e8d60016138b4565b9650868a5f030394505b82613b7d57613b788d898d5f6138b4565b613b89565b613b89888e8d5f61397a565b955050613c0f565b81613ba757613ba28c8c8c5f6138b4565b613bb3565b613bb38b8d8c5f61397a565b9450848910613bc4578a9650613bd6565b889450613bd38c8b8785613e0e565b96505b81613bed57613be88c888c600161397a565b613bfa565b613bfa878d8c60016138b4565b9550613c0c868485620f424003613c1e565b93505b50505095509550955095915050565b5f613c2a84848461279a565b90508180613c3a57613c3a614b19565b838509156107755760010180610775575f80fd5b5f808211613c5a575f80fd5b600160801b8210613c6d57608091821c91015b680100000000000000008210613c8557604091821c91015b6401000000008210613c9957602091821c91015b620100008210613cab57601091821c91015b6101008210613cbc57600891821c91015b60108210613ccc57600491821c91015b60048210613cdc57600291821c91015b60028210610f8657600101919050565b5f808211613cf8575f80fd5b5060ff6001600160801b03821615613d1357607f1901613d1b565b608082901c91505b6001600160401b03821615613d3357603f1901613d3b565b604082901c91505b63ffffffff821615613d5057601f1901613d58565b602082901c91505b61ffff821615613d6b57600f1901613d73565b601082901c91505b60ff821615613d855760071901613d8d565b600882901c91505b600f821615613d9f5760031901613da7565b600482901c91505b6003821615613db95760011901613dc1565b600282901c91505b6001821615610f86575f1901919050565b5f831585151715613dea57634f2461b85f526004601cfd5b81613e0157613dfc8585856001613e3f565b611d1f565b611d1f8585856001613f21565b5f831585151715613e2657634f2461b85f526004601cfd5b81613e3757613dfc8585855f613f21565b611d1f8585855f5b5f8115613eaf575f6001600160a01b03841115613e7357613e6e84600160601b876001600160801b031661279a565b613e8a565b613e8a6001600160801b038616606086901b614b2d565b9050613ea7613ea2826001600160a01b0389166146c0565b614002565b9150506114bb565b5f6001600160a01b03841115613edc57613ed784600160601b876001600160801b0316613c1e565b613ef9565b613ef9606085901b6001600160801b038716808204910615150190565b9050808611613f0f57634323a5555f526004601cfd5b6001600160a01b0386160390506114bb565b5f825f03613f305750836114bb565b600160601b600160e01b03606085901b168215613fc2576001600160a01b03861684810290858281613f6457613f64614b19565b0403613f9457818101828110613f9257613f8883896001600160a01b031683613c1e565b93505050506114bb565b505b50613ea78185613fad6001600160a01b038a1683614b2d565b613fb791906146c0565b808204910615150190565b6001600160a01b0386168402848104871481831116613fe85763f5c787f15f526004601cfd5b808203613f88613ea2846001600160a01b038b1684613c1e565b5f600160a01b82106114df576114df6126a6565b6001600160a01b0381168114611693575f80fd5b5f806040838503121561403b575f80fd5b823561404681614016565b946020939093013593505050565b5f60208284031215614064575f80fd5b81356001600160e01b031981168114610775575f80fd5b5f805f6060848603121561408d575f80fd5b833561409881614016565b95602085013595506040909401359392505050565b5f805f606084860312156140bf575f80fd5b83356140ca81614016565b925060208401356140da81614016565b929592945050506040919091013590565b5f602082840312156140fb575f80fd5b5035919050565b634e487b7160e01b5f52604160045260245ffd5b604051608081016001600160401b038111828210171561413857614138614102565b60405290565b604051601f8201601f191681016001600160401b038111828210171561416657614166614102565b604052919050565b803562ffffff81168114610f86575f80fd5b8035600281900b8114610f86575f80fd5b5f60a082840312156141a1575f80fd5b60405160a081016001600160401b03811182821017156141c3576141c3614102565b60405290508082356141d481614016565b815260208301356141e481614016565b60208201526141f56040840161416e565b604082015261420660608401614180565b6060820152608083013561421981614016565b6080919091015292915050565b5f8083601f840112614236575f80fd5b5081356001600160401b0381111561424c575f80fd5b602083019150836020828501011115614263575f80fd5b9250929050565b5f805f805f610100868803121561427f575f80fd5b6142898787614191565b945060a0860135935060c0860135925060e08601356001600160401b038111156142b1575f80fd5b6142bd88828901614226565b969995985093965092949392505050565b5f602082840312156142de575f80fd5b813561077581614016565b5f80604083850312156142fa575f80fd5b50508035926020909101359150565b602081525f82518060208401528060208501604085015e5f604082850101526040601f19601f83011684010191505092915050565b5f806020838503121561434f575f80fd5b82356001600160401b03811115614364575f80fd5b61437085828601614226565b90969095509350505050565b5f8060c0838503121561438d575f80fd5b6143978484614191565b91506143a560a0840161416e565b90509250929050565b80358015158114610f86575f80fd5b5f80604083850312156143ce575f80fd5b82356143d981614016565b91506143a5602084016143ae565b5f805f808486036101408112156143fc575f80fd5b6144068787614191565b94506080609f1982011215614419575f80fd5b50614422614116565b61442e60a08701614180565b815261443c60c08701614180565b602082015260e08601356040820152610100860135606082015292506101208501356001600160401b03811115614471575f80fd5b61447d87828801614226565b95989497509550505050565b5f805f8060e0858703121561449c575f80fd5b6144a68686614191565b935060a08501356144b681614016565b925060c08501356001600160401b03811115614471575f80fd5b5f80602083850312156144e1575f80fd5b82356001600160401b038111156144f6575f80fd5b8301601f81018513614506575f80fd5b80356001600160401b0381111561451b575f80fd5b8560208260051b840101111561452f575f80fd5b6020919091019590945092505050565b602080825282518282018190525f918401906040840190835b81811015614576578351835260209384019390920191600101614558565b509095945050505050565b5f8060408385031215614592575f80fd5b823561459d81614016565b915060208301356145ad81614016565b809150509250929050565b5f805f808486036101208112156145cd575f80fd5b6145d78787614191565b94506060609f19820112156145ea575f80fd5b50604051606081016001600160401b038111828210171561460d5761460d614102565b60405261461c60a087016143ae565b815260c0860135602082015260e086013561463681614016565b604082015292506101008501356001600160401b03811115614471575f80fd5b5f805f8060808587031215614669575f80fd5b843561467481614016565b9350602085013561468481614016565b93969395505050506040820135916060013590565b634e487b7160e01b5f52601160045260245ffd5b818103818111156106cf576106cf614699565b808201808211156106cf576106cf614699565b81835281816020850137505f828201602090810191909152601f909101601f19169091010190565b602081525f6114bb6020830184866146d3565b5f6020828403121561471e575f80fd5b81516001600160401b03811115614733575f80fd5b8201601f81018413614743575f80fd5b80516001600160401b0381111561475c5761475c614102565b61476f601f8201601f191660200161413e565b818152856020838501011115614783575f80fd5b8160208401602083015e5f91810160200191909152949350505050565b8082018281125f8312801582168215821617156147bf576147bf614699565b505092915050565b80516001600160a01b03908116835260208083015182169084015260408083015162ffffff169084015260608083015160020b9084015260809182015116910152565b6001600160a01b038716815261482360208201876147c7565b8460c08201528360e08201526101206101008201525f614848610120830184866146d3565b98975050505050505050565b6001600160a01b038616815261486d60208201866147c7565b8351600290810b60c08301526020850151900b60e0820152604084015161010082015260608401516101208201526101606101408201525f613963610160830184866146d3565b6001600160a01b03871681526148cd60208201876147c7565b8451600290810b60c08301526020860151900b60e082015260408501516101008201526060850151610120820152836101408201526101806101608201525f614848610180830184866146d3565b6001600160a01b038616815261493460208201866147c7565b6001600160a01b03841660c082015261010060e082018190525f9061396390830184866146d3565b60a081016106cf82846147c7565b5f82518060208501845e5f920191825250919050565b6001600160a01b038716815261499960208201876147c7565b60018060a01b03851660c08201528360020b60e08201526101206101008201525f614848610120830184866146d3565b5f602082840312156149d9575f80fd5b5051919050565b6001600160a01b03861681526149f960208201866147c7565b8351151560c0820152602084015160e082015260408401516001600160a01b03166101008201526101406101208201525f613963610140830184866146d3565b6001600160a01b0387168152614a5260208201876147c7565b8451151560c0820152602085015160e082015260408501516001600160a01b0316610100820152836101208201526101606101408201525f614848610160830184866146d3565b600f81810b9083900b0160016001607f1b03811360016001607f1b0319821217156106cf576106cf614699565b600f82810b9082900b0360016001607f1b0319811260016001607f1b03821317156106cf576106cf614699565b8181035f831280158383131683831282161715614b1257614b12614699565b5092915050565b634e487b7160e01b5f52601260045260245ffd5b5f82614b4757634e487b7160e01b5f52601260045260245ffd5b50049056fe1b3d7edb2e9c0b0e7c525b20aaaef0f5940d2ed71663c7d39266ecafac728859c090fc4683624cfc3884e9d8de5eca132f2d0ec062aff75d43c0465d5ceeab237d4b3164c6e45b97e7d87b7125a44c5828d005af88f9d751cfd78729c5d99a0ba2646970667358221220c9150c337a38fae3026db8137115694aea798c9e99a8ae082ac8010e27a0772b64736f6c634300081a0033","linkReferences":{}},"methodIdentifiers":{"MAX_TICK_SPACING()":"60460f06","MIN_TICK_SPACING()":"07eff0dd","allowance(address,address,uint256)":"598af9e7","approve(address,uint256,uint256)":"426a8493","balanceOf(address,uint256)":"00fdd58e","burn(address,uint256,uint256)":"f5298aca","collectProtocolFees(address,address,uint256)":"8161b874","donate((address,address,uint24,int24,address),uint256,uint256,bytes)":"234266d7","extsload(bytes32)":"1e2eaeaf","extsload(bytes32,uint256)":"35fd631a","extsload(bytes32[])":"dbd035ff","exttload(bytes32)":"f135baaa","exttload(bytes32[])":"9bf6645f","initialize((address,address,uint24,int24,address),uint160,bytes)":"695c5bf5","isOperator(address,address)":"b6363cf2","mint(address,uint256,uint256)":"156e29f6","modifyLiquidity((address,address,uint24,int24,address),(int24,int24,int256,bytes32),bytes)":"5a6bcfda","owner()":"8da5cb5b","protocolFeeController()":"f02de3b2","protocolFeesAccrued(address)":"97e8cd4e","setOperator(address,bool)":"558a7297","setProtocolFee((address,address,uint24,int24,address),uint24)":"7e87ce7d","setProtocolFeeController(address)":"2d771389","settle(address)":"6a256b29","supportsInterface(bytes4)":"01ffc9a7","swap((address,address,uint24,int24,address),(bool,int256,uint160),bytes)":"f3cd914c","sync(address)":"a5841194","take(address,address,uint256)":"0b0d9c09","transfer(address,uint256,uint256)":"095bcdb6","transferFrom(address,address,uint256,uint256)":"fe99049a","transferOwnership(address)":"f2fde38b","unlock(bytes)":"48c89491","updateDynamicLPFee((address,address,uint24,int24,address),uint24)":"52759651"},"id":24}