{"abi":[{"type":"constructor","inputs":[{"name":"_manager","type":"address","internalType":"contract IPoolManager"}],"stateMutability":"nonpayable"},{"type":"function","name":"manager","inputs":[],"outputs":[{"name":"","type":"address","internalType":"contract IPoolManager"}],"stateMutability":"view"},{"type":"function","name":"modifyLiquidity","inputs":[{"name":"key","type":"tuple","internalType":"struct PoolKey","components":[{"name":"currency0","type":"address","internalType":"Currency"},{"name":"currency1","type":"address","internalType":"Currency"},{"name":"fee","type":"uint24","internalType":"uint24"},{"name":"tickSpacing","type":"int24","internalType":"int24"},{"name":"hooks","type":"address","internalType":"contract IHooks"}]},{"name":"params","type":"tuple","internalType":"struct IPoolManager.ModifyLiquidityParams","components":[{"name":"tickLower","type":"int24","internalType":"int24"},{"name":"tickUpper","type":"int24","internalType":"int24"},{"name":"liquidityDelta","type":"int256","internalType":"int256"},{"name":"salt","type":"bytes32","internalType":"bytes32"}]},{"name":"hookData","type":"bytes","internalType":"bytes"},{"name":"settleUsingBurn","type":"bool","internalType":"bool"},{"name":"takeClaims","type":"bool","internalType":"bool"}],"outputs":[{"name":"delta","type":"int256","internalType":"BalanceDelta"}],"stateMutability":"payable"},{"type":"function","name":"modifyLiquidity","inputs":[{"name":"key","type":"tuple","internalType":"struct PoolKey","components":[{"name":"currency0","type":"address","internalType":"Currency"},{"name":"currency1","type":"address","internalType":"Currency"},{"name":"fee","type":"uint24","internalType":"uint24"},{"name":"tickSpacing","type":"int24","internalType":"int24"},{"name":"hooks","type":"address","internalType":"contract IHooks"}]},{"name":"params","type":"tuple","internalType":"struct IPoolManager.ModifyLiquidityParams","components":[{"name":"tickLower","type":"int24","internalType":"int24"},{"name":"tickUpper","type":"int24","internalType":"int24"},{"name":"liquidityDelta","type":"int256","internalType":"int256"},{"name":"salt","type":"bytes32","internalType":"bytes32"}]},{"name":"hookData","type":"bytes","internalType":"bytes"}],"outputs":[{"name":"delta","type":"int256","internalType":"BalanceDelta"}],"stateMutability":"payable"},{"type":"function","name":"unlockCallback","inputs":[{"name":"rawData","type":"bytes","internalType":"bytes"}],"outputs":[{"name":"","type":"bytes","internalType":"bytes"}],"stateMutability":"nonpayable"}],"bytecode":{"object":"0x60a0604052348015600e575f80fd5b506040516115ed3803806115ed833981016040819052602b91603b565b6001600160a01b03166080526066565b5f60208284031215604a575f80fd5b81516001600160a01b0381168114605f575f80fd5b9392505050565b6080516115246100c95f395f818160790152818160f50152818161022d01528181610294015281816102ea01528181610390015281816104f90152818161054f015281816105be0152818161060f0152818161077a01526107ad01526115245ff3fe60806040526004361061003e575f3560e01c80630a5b11e414610042578063481c6a75146100685780635a6bcfda146100b357806391dd7346146100c6575b5f80fd5b610055610050366004611018565b6100f2565b6040519081526020015b60405180910390f35b348015610073575f80fd5b5061009b7f000000000000000000000000000000000000000000000000000000000000000081565b6040516001600160a01b03909116815260200161005f565b6100556100c136600461109f565b61020a565b3480156100d1575f80fd5b506100e56100e03660046110fd565b610220565b60405161005f9190611199565b5f7f00000000000000000000000000000000000000000000000000000000000000006001600160a01b03166348c894916040518060c00160405280336001600160a01b03168152602001898152602001888152602001878152602001861515815260200185151581525060405160200161016c91906111f5565b6040516020818303038152906040526040518263ffffffff1660e01b81526004016101979190611199565b5f604051808303815f875af11580156101b2573d5f803e3d5ffd5b505050506040513d5f823e601f3d908101601f191682016040526101d99190810190611291565b8060200190518101906101ec9190611306565b9050478015610200576102005f3383610661565b5095945050505050565b5f6102188484845f806100f2565b949350505050565b6060336001600160a01b037f00000000000000000000000000000000000000000000000000000000000000001614610256575f80fd5b5f6102638385018561131d565b90505f6102be610278836020015160a0902090565b6040840151805160208201516060909201516001600160a01b037f00000000000000000000000000000000000000000000000000000000000000001693923092916106cd565b51602083015160408085015160608601519151632d35e7ed60e11b81529394505f936001600160a01b037f00000000000000000000000000000000000000000000000000000000000000001693635a6bcfda9361031f9391926004016113e6565b60408051808303815f875af115801561033a573d5f803e3d5ffd5b505050506040513d601f19601f8201168201806040525081019061035e9190611435565b5090505f6103ba610374856020015160a0902090565b6040860151805160208201516060909201516001600160a01b037f00000000000000000000000000000000000000000000000000000000000000001693923092916106cd565b5160208501515185519192505f916103d3919030610753565b925050505f6103ee866020015160200151875f015130610753565b9250505082600f0b86604001516040015186600f0b61040d919061146b565b1461045e5760405162461bcd60e51b815260206004820152601a60248201527f6c6971756964697479206368616e676520696e636f7272656374000000000000604482015260640160405180910390fd5b5f86604001516040015112156104a6575f82138061047b57505f81135b61048757610487611492565b5f82128061049457505f81125b156104a1576104a1611492565b6104e9565b5f86604001516040015113156104e9575f8212806104c357505f81125b6104cf576104cf611492565b5f8213806104dc57505f81135b156104e9576104e9611492565b5f82121561053f57855161053f907f000000000000000000000000000000000000000000000000000000000000000090610522856114a6565b60808a015160208b0151516001600160a01b0316939291906107df565b5f811215610597578551610597907f000000000000000000000000000000000000000000000000000000000000000090610578846114a6565b60808a01516020808c015101516001600160a01b0316939291906107df565b5f8213156105e657855160a08701516020880151516105e6926001600160a01b03909116917f000000000000000000000000000000000000000000000000000000000000000091908690610ad0565b5f81131561063757855160a08701516020808901510151610637926001600160a01b03909116917f000000000000000000000000000000000000000000000000000000000000000091908590610ad0565b60408051602081018690520160405160208183030381529060405296505050505050505b92915050565b6001600160a01b03831661068d575f805f8084865af16106885763f4b3b1bc5f526004601cfd5b505050565b816014528060345263a9059cbb60601b5f5260205f604460105f875af13d1560015f511417166106c45763f27f64e45f526004601cfd5b5f603452505050565b6106f760405180606001604052805f6001600160801b031681526020015f81526020015f81525090565b5f826026528360065284600352855f52603a600c2090505f6026525f805f6107208b8b86610ba2565b604080516060810182526001600160801b0390941684526020840192909252908201529450505050509695505050505050565b5f80806107696001600160a01b03871686610c45565b925061079e6001600160a01b0387167f0000000000000000000000000000000000000000000000000000000000000000610c45565b91506107d46001600160a01b037f0000000000000000000000000000000000000000000000000000000000000000168588610cd4565b905093509350939050565b801561087457836001600160a01b031663f5298aca8461080e886001600160a01b03166001600160a01b031690565b6040516001600160e01b031960e085901b1681526001600160a01b0390921660048301526024820152604481018590526064015b5f604051808303815f87803b158015610859575f80fd5b505af115801561086b573d5f803e3d5ffd5b50505050610ac9565b6001600160a01b0385166108f457604051636a256b2960e01b81526001600160a01b038681166004830152851690636a256b2990849060240160206040518083038185885af11580156108c9573d5f803e3d5ffd5b50505050506040513d601f19601f820116820180604052508101906108ee9190611306565b50610ac9565b604051632961046560e21b81526001600160a01b03868116600483015285169063a5841194906024016020604051808303815f875af1158015610939573d5f803e3d5ffd5b505050506040513d601f19601f8201168201806040525081019061095d9190611306565b506001600160a01b03831630146109ec576040516323b872dd60e01b81526001600160a01b0384811660048301528581166024830152604482018490528616906323b872dd906064016020604051808303815f875af11580156109c2573d5f803e3d5ffd5b505050506040513d601f19601f820116820180604052508101906109e691906114c0565b50610a5e565b60405163a9059cbb60e01b81526001600160a01b0385811660048301526024820184905286169063a9059cbb906044016020604051808303815f875af1158015610a38573d5f803e3d5ffd5b505050506040513d601f19601f82011682018060405250810190610a5c91906114c0565b505b604051636a256b2960e01b81526001600160a01b038681166004830152851690636a256b29906024016020604051808303815f875af1158015610aa3573d5f803e3d5ffd5b505050506040513d601f19601f82011682018060405250810190610ac79190611306565b505b5050505050565b80610b1257604051630b0d9c0960e01b81526001600160a01b038681166004830152848116602483015260448201849052851690630b0d9c0990606401610842565b836001600160a01b031663156e29f684610b3b886001600160a01b03166001600160a01b031690565b6040516001600160e01b031960e085901b1681526001600160a01b0390921660048301526024820152604481018590526064015f604051808303815f87803b158015610b85575f80fd5b505af1158015610b97573d5f803e3d5ffd5b505050505050505050565b5f805f80610bb08686610d51565b604051631afeb18d60e11b815260048101829052600360248201529091505f906001600160a01b038916906335fd631a906044015f60405180830381865afa158015610bfe573d5f803e3d5ffd5b505050506040513d5f823e601f3d908101601f19168201604052610c259190810190611291565b60208101516040820151606090920151909a919950975095505050505050565b5f6001600160a01b038316610c6557506001600160a01b0381163161065b565b6040516370a0823160e01b81526001600160a01b0383811660048301528416906370a0823190602401602060405180830381865afa158015610ca9573d5f803e3d5ffd5b505050506040513d601f19601f82011682018060405250810190610ccd9190611306565b905061065b565b5f82815260208290526040808220905163789add5560e11b8152600481018290526001600160a01b0386169063f135baaa90602401602060405180830381865afa158015610d24573d5f803e3d5ffd5b505050506040513d601f19601f82011682018060405250810190610d489190611306565b95945050505050565b5f80610d5c84610da1565b90505f610d6a6006836114db565b6040805160208101879052908101829052909150606001604051602081830303815290604052805190602001209250505092915050565b6040515f90610dc0908390600690602001918252602082015260400190565b604051602081830303815290604052805190602001209050919050565b634e487b7160e01b5f52604160045260245ffd5b60405160c0810167ffffffffffffffff81118282101715610e1457610e14610ddd565b60405290565b604051601f8201601f1916810167ffffffffffffffff81118282101715610e4357610e43610ddd565b604052919050565b6001600160a01b0381168114610e5f575f80fd5b50565b8035600281900b8114610e73575f80fd5b919050565b5f60a08284031215610e88575f80fd5b60405160a0810167ffffffffffffffff81118282101715610eab57610eab610ddd565b6040529050808235610ebc81610e4b565b81526020830135610ecc81610e4b565b6020820152604083013562ffffff81168114610ee6575f80fd5b6040820152610ef760608401610e62565b60608201526080830135610f0a81610e4b565b6080919091015292915050565b5f60808284031215610f27575f80fd5b6040516080810167ffffffffffffffff81118282101715610f4a57610f4a610ddd565b604052905080610f5983610e62565b8152610f6760208401610e62565b602082015260408301356040820152606083013560608201525092915050565b5f67ffffffffffffffff821115610fa057610fa0610ddd565b50601f01601f191660200190565b5f82601f830112610fbd575f80fd5b8135610fd0610fcb82610f87565b610e1a565b818152846020838601011115610fe4575f80fd5b816020850160208301375f918101602001919091529392505050565b8015158114610e5f575f80fd5b8035610e7381611000565b5f805f805f610180868803121561102d575f80fd5b6110378787610e78565b94506110468760a08801610f17565b935061012086013567ffffffffffffffff811115611062575f80fd5b61106e88828901610fae565b93505061014086013561108081611000565b915061016086013561109181611000565b809150509295509295909350565b5f805f61014084860312156110b2575f80fd5b6110bc8585610e78565b92506110cb8560a08601610f17565b915061012084013567ffffffffffffffff8111156110e7575f80fd5b6110f386828701610fae565b9150509250925092565b5f806020838503121561110e575f80fd5b823567ffffffffffffffff811115611124575f80fd5b8301601f81018513611134575f80fd5b803567ffffffffffffffff81111561114a575f80fd5b85602082840101111561115b575f80fd5b6020919091019590945092505050565b5f81518084528060208401602086015e5f602082860101526020601f19601f83011685010191505092915050565b602081525f6111ab602083018461116b565b9392505050565b80516001600160a01b03908116835260208083015182169084015260408083015162ffffff169084015260608083015160020b9084015260809182015116910152565b602080825282516001600160a01b0316828201528201515f9061121b60408401826111b2565b506040838101518051600290810b60e08601526020820151900b610100850152908101516101208401526060908101516101408401528301516101a061016084015261126b6101c084018261116b565b90506080840151151561018084015260a084015115156101a08401528091505092915050565b5f602082840312156112a1575f80fd5b815167ffffffffffffffff8111156112b7575f80fd5b8201601f810184136112c7575f80fd5b80516112d5610fcb82610f87565b8181528560208385010111156112e9575f80fd5b8160208401602083015e5f91810160200191909152949350505050565b5f60208284031215611316575f80fd5b5051919050565b5f6020828403121561132d575f80fd5b813567ffffffffffffffff811115611343575f80fd5b82016101a08185031215611355575f80fd5b61135d610df1565b813561136881610e4b565b81526113778560208401610e78565b60208201526113898560c08401610f17565b604082015261014082013567ffffffffffffffff8111156113a8575f80fd5b6113b486828501610fae565b6060830152506113c7610160830161100d565b60808201526113d9610180830161100d565b60a0820152949350505050565b6113f081856111b2565b8251600290810b60a08301526020840151900b60c0820152604083015160e082015260608301516101008201526101406101208201525f610d4861014083018461116b565b5f8060408385031215611446575f80fd5b505080516020909101519092909150565b634e487b7160e01b5f52601160045260245ffd5b8082018281125f83128015821682158216171561148a5761148a611457565b505092915050565b634e487b7160e01b5f52600160045260245ffd5b5f600160ff1b82016114ba576114ba611457565b505f0390565b5f602082840312156114d0575f80fd5b81516111ab81611000565b8082018082111561065b5761065b61145756fea2646970667358221220290779f06dfc65935fad4c2b204bae5d1c2091ebf8787c05fff8baed7c1b9f5a64736f6c634300081a0033","linkReferences":{}},"methodIdentifiers":{"manager()":"481c6a75","modifyLiquidity((address,address,uint24,int24,address),(int24,int24,int256,bytes32),bytes)":"5a6bcfda","modifyLiquidity((address,address,uint24,int24,address),(int24,int24,int256,bytes32),bytes,bool,bool)":"0a5b11e4","unlockCallback(bytes)":"91dd7346"},"id":26}